:020000040800F2
:10000000480700207D010008F90200088902000865
:10001000F50200084F0200088D06000800000000ED
:10002000000000000000000000000000270300089E
:1000300053020008000000002503000829030008FF
:100040009701000897010008970100089701000830
:100050009701000897010008970100089701000820
:100060009701000897010008970100089701000810
:10007000970100089701000897010008B9030008DC
:100080009701000897010008000000009701000890
:1000900097010008970100089701000897010008E0
:1000A00097010008970100089701000869040008FB
:1000B0009701000800000000970100080000000000
:1000C0009701000800000000970100089701000850
:1000D0009701000897010008970100080000000040
:1000E00000000000000000009701000897010008D0
:1000F0009701000897010008970100089701000880
:1001000097010008000000000000000097010008AF
:1001100000000000000000000000000000000000DF
:1001200000000000000000000000000000000000CF
:1001300000000000000000000000000000000000BF
:1001400000000000000000000000000000000000AF
:10015000000000000000000097010008970100085F
:100160009701000897010008DFF80CD000F03CF878
:10017000004800474D0E0008480700200648804709
:1001800006480047FEE7FEE7FEE7FEE7FEE7FEE77C
:10019000FEE7FEE7FEE7FEE731030008690100081D
:1001A00040EA01039B0703D009E008C9121F08C0F9
:1001B000042AFAD203E011F8013B00F8013B521E79
:1001C000F9D27047D2B201E000F8012B491EFBD2F0
:1001D00070470022F6E710B513460A460446194652
:1001E000FFF7F0FF204610BD064C074D06E0E06823
:1001F00040F0010394E8070098471034AC42F6D36E
:10020000FFF7B6FF94190008B419000810B540F2C2
:10021000115001F005F940F2096001F001F90320E5
:1002200000F0B6FE0121084600F0AAFA4FF4602162
:10023000012000F0CFFA002000F058FA0121084612
:1002400000F066FA00F08EFA00F032FA10BD00BF3E
:10025000FEE7704710B540F2125001F0E1F80823B4
:1002600001221146074800F099FD082303220021CE
:10027000044800F0BAFD00220821024800F089FD80
:1002800010BD00000004004800BFFEE710B540F2BA
:10029000115001F0C5F840F2125001F0C1F880236E
:1002A00000220121124800F079FD402300220121A3
:1002B0000F4800F073FD4FF48073002201214FF0CE
:1002C000904000F06BFD802303220021084800F0DD
:1002D0008CFD402303220021054800F086FD4FF4E9
:1002E0008073032200214FF0904000F07EFD10BD8E
:1002F0000004004800BFFEE77047000010B500286A
:1003000007DA0A07140E054A00F00F031B1FD45426
:1003100003E00A07130E024A135410BD18ED00E063
:1003200000E400E07047704710B500F09BFB10BD83
:1003300010B51D48006840F001001B49086000BF6F
:100340001948006800F002000028F9D016484068FB
:100350001649084014494860084640681449084056
:10036000114948600846406820F44000486008464B
:100370000068104908400C4908600846C06A20F02F
:100380000F00C8620846006B40F2431188430649DB
:1003900008630846406B20F0010048630020886035
:1003A00001F096F810BD0000001002400C00FF089C
:1003B000FFFFC277FFFFF2FE10B50121880701F0B1
:1003C00007F917480068B0F5B47F04D214480068F4
:1003D000401C1349086013480078B0B111480078F8
:1003E000F52805D10020104908700D49086009E082
:1003F0000C480078FA2805D101200B49087000202C
:1004000007490860002007490870054800684FF652
:10041000FE71884202D900200149086010BD000029
:100420002400002018000020280000201FB54FF4F1
:10043000E06000F0F5FF0B4B0FCB8DE80F00694635
:100440004FF0804001F076F80121880701F0BCF8F8
:10045000022200210F2000F027FD4FF0804001F024
:1004600063F81FBD8419000870B500254F49504836
:1004700001F05CFA002872D04D4801F003FAC4B2D2
:100480004C48047038264C480078012806D00228D1
:1004900010D0032826D004287ED135E0FA2C08D1CC
:1004A00000204649086046480968445402204249F1
:1004B000087074E0FB2C09D10120404908604048D5
:1004C0000968445403203C4908700AE0FA2C08D11A
:1004D00000203A4908603A480968445402203649E5
:1004E00008705CE0374804700220344908603448E2
:1004F00009684454042030490870324800781E28A6
:1005000001DD00F0BDFF4AE02C480068401C2B498B
:1005100008602B4809684454284801682948007835
:10052000801C814237D300F0ABFF254800F03FFA32
:100530000546234923480078401C085CB0EB252F72
:1005400029D120480078801C085CE9B2884222D179
:100550001B48C078052803D007281AD115E020E0F1
:1005600017480079184908601648007806280AD10B
:1005700013494979124A927941EA0220002801DDA3
:100580001249086000BF05E006E00120104908603C
:1005900000E000BF00BF02E000F072FF00BF00BF3C
:1005A00000BF0249024801F0B8F970BD0500050717
:1005B0000038014018000020200000201C0000200E
:1005C0003801002022000020040000200800002044
:1005D0000000002010B540F2115000F021FF40F261
:1005E0000E6000F01DFF4FF4007201214FF09040AB
:1005F00000F0A0FB4FF4806201214FF0904000F02A
:1006000099FB4FF40073012202214FF0904000F05B
:10061000C5FB4FF40073012200214FF0904000F021
:10062000E4FB4FF48063012202214FF0904000F080
:10063000B5FB4FF48063012200214FF0904000F0A1
:10064000D4FB104801F028F94FF416410D4801F091
:10065000DBF808210B4801F08DF90421094801F06D
:1006600081F9084801F038F9002211461B2000F0FA
:100670001BFC0521034801F043F9012002490870E1
:1006800010BD0000003801402800002000BFFEE738
:1006900002E008C8121F08C1002AFAD1704770474B
:1006A000002001E001C1121F002AFBD170470000A9
:1006B0000D48006840F008000B49086000BF0A4878
:1006C000006800F008000028F9D10748006840F0F1
:1006D00004000549086000BF0348006800F00400FA
:1006E0000028F9D1704700000824014030B10749C3
:1006F000096841F40061054A116005E00349096891
:1007000021F40061014A1160704700000824014093
:10071000134A126822F4C052114B1A60012802D009
:1007200002281AD112E00E4A126822F460420C4BE1
:100730001A601A4613684A1E43EA4232084B1A608E
:100740001A46126842F400621A6007E0044A12680E
:1007500042F48052024B1A6000E000BF00BF7047B5
:10076000042401400548006800F0010028B903484E
:10077000006840F00100014908607047082401400A
:1007800091B100F001022AB1114A126842F48012BC
:100790000F4B1A6000F00202C2B10D4A126842F417
:1007A00000420B4B1A6011E000F001022AB1084A26
:1007B000126822F48012064B1A6000F002022AB17D
:1007C000034A126822F40042014B1A60704700008D
:1007D00008240140012802D0022816D10AE00C4A60
:1007E000126822F460220A4B1A601A4612680A4301
:1007F0001A600BE0064A126822F4E042044B1A60C9
:100800001A4612680A431A6000E000BF00BF704732
:1008100008240140024909688143014A1160704778
:100820000024014001460020024A12680A4002B139
:10083000012070470024014070B51446122900D1F0
:10084000002106280ED2324D2A6800EB80061F25B3
:10085000B540AA4300EB800501FA05F52A432C4D6B
:100860002A602AE00C2812D2294D2D1F2A68851FE4
:1008700005EB85061F25B540AA43851F05EB8505B9
:1008800001FA05F52A43224D2D1F2A6015E0102894
:1008900013D21F4D083D2A68A0F10C0505EB850613
:1008A0001F25B540AA43A0F10C0505EB850501FA0B
:1008B00005F52A43164D083D2A600A2910D2144D29
:1008C000243D2B6801EB41060725B540AB4301EB06
:1008D000410504FA05F52B430D4D243D2B6015E031
:1008E000122913D20A4D283D2B68A1F10A0505EB08
:1008F00045060725B540AB43A1F10A0505EB4505C3
:1009000004FA05F52B43024D283D2B6070BD000015
:100910003424014000F0010129B10849096841F47B
:100920008001064A116000F0020129B103490968FB
:1009300041F40011014A1160704700000824014091
:1009400070B504460E4615462946204600F06EFA5C
:1009500000B970BDA18E08192A463146FFF720FC68
:10096000A08E2844A08600BFF3E713B504460122F9
:1009700001A92046FFF7E4FF1CBD30B50146002069
:1009800003228C78A41EE3B20AE0541C0C5D8D5C3B
:1009900044EA05240444A0B200BF9C1EE3B2921CAA
:1009A000012BF2DC002B01DD8C5C604030BD30B5EA
:1009B0000146002003228C78A41EE3B20AE0541CF6
:1009C0000C5D8D5C44EA05240444A0B200BF9C1E6B
:1009D000E3B2921C012BF2DC002B01DD8C5C604049
:1009E00030BD000010B50C480078A0B10B4800687D
:1009F000B0F5B47F0FD30020084908600122082118
:100A0000074800F0C6F9012000F022F80022082172
:100A1000034800F0BEF910BD28000020240000208B
:100A20000004004800B50246104600F077F99086B1
:100A3000104600F073F95086002082F8360000233B
:100A400003E00020D054581CC3B2322BF9DB00BDA8
:100A50000349086000BF024909680029FBD17047BB
:100A6000100000200448006820B103480068401EC0
:100A70000149086070470000100000202DE9F04196
:100A80000446FA202070FB206070204600F046F9F2
:100A900094F83410081AC01CA0702046FFF76DFFB0
:100AA00005B2280A46B26FB231462046FFF75DFF15
:100AB00039462046FFF759FF0121204600F0E8FCA7
:100AC000BDE8F08130B502460B46164C002145F2D8
:100AD0005550154D286000BF1348C06800F0010153
:100AE000601E041E01D00029F6D109B1002030BDDE
:100AF0000D4843600B4C00BF0B48C06800F002017A
:100B0000601E041E01D00029F6D109B10020EEE7D5
:100B1000C2F30B00044DA8604AF6AA202860012009
:100B2000E5E70000FFFF0F00003000404AF6AA2072
:100B30000149086070470000003000404CF6CC408E
:100B400001490860704700000030004008B500F01F
:100B5000CFFD054800880549088005480088488081
:100B600008460068009008BD2E0000202A000020E2
:100B70003000002010B5052000F00CF8C0B210BD08
:100B800010B50446182202492046FFF709FB10BDA4
:100B90002C0300202DE9F05F04464FF0000AD346F5
:100BA0000026B0464FF6FF79002564B940230022A5
:100BB00003214FF0904000F0F1F80622114600208A
:100BC000FFF73AFE83E0012C0CD1802300220321A1
:100BD0004FF0904000F0E2F8062207210020FFF7D6
:100BE0002BFE74E0022C0CD10123002203214FF0D4
:100BF000904000F0D3F8062200210846FFF71CFEC3
:100C000065E0032C0CD11023002203214FF090400B
:100C100000F0C4F8062204210020FFF70DFE56E084
:100C2000042C0CD10423002203214FF0904000F04B
:100C3000B5F8062202210020FFF7FEFD47E0052C53
:100C40000BD1012300220321324800F0A7F806222D
:100C500008210020FFF7F0FD39E0062C0CD12023FD
:100C6000002203214FF0904000F098F80622052161
:100C70000020FFF7E1FD2AE0072C0CD1022300221F
:100C800003214FF0904000F089F806220121002056
:100C9000FFF7D2FD1BE0082C0CD108230022032112
:100CA0004FF0904000F07AF8062203210020FFF771
:100CB000C3FD0CE0092C0AD10223002203211548B0
:100CC00000F06CF8062209210020FFF7B5FD00278F
:100CD00016E00120FFF71EFE0220FFF79BFD00BF7C
:100CE0000220FFF79FFD0128FAD10B480568454512
:100CF00000D9A8464D4500D2A9462E44781C87B29B
:100D0000062FE6DBA6EB0906A6EB0806C6F38F0066
:100D1000BDE8F09F000400484C2401400146042037
:100D20007047014691F83400704710B50920FFF76D
:100D300031FF10BDF0B503461C6A5D6A00200DE06E
:100D40000126864016403EB187000F26BE40B443C0
:100D5000860001FA06F63443461CB0B20828EFD3E9
:100D6000082011E00126864016405EB1A0F1080679
:100D7000B7000F26BE40B543A0F10806B60001FA41
:100D800006F63543461CB0B21028EBD31C625D62F8
:100D9000F0BD0AB1816100E081627047F0B50446A0
:100DA0000D4616462168E268002019E001278740B9
:100DB0001F409FB14FEA400C032707FA0CF7B943D5
:100DC000470005FA07F739434FEA400C032707FAB3
:100DD0000CF7BA43470006FA07F73A43471CB8B284
:100DE0001028E3D32160E260F0BDF0B50C46154653
:100DF000012C03D146681E43466002E046689E43CC
:100E00004660826800210DE001268E401E403EB102
:100E10004F000326BE40B2434E0005FA06F63243A9
:100E20004E1CB1B21029EFD38260F0BD02460029FA
:100E300001DA00207047908E0844322801DC01203E
:100E4000F8E7002082F8360000BFF3E700BF00F0AB
:100E500043FB4FF4106000F04DFA4FF4106000F0C7
:100E600059FA40F20B7000F0DBFA042140F27120D5
:100E7000FFF728FEFFF762FEFFF7ECF9FFF706FA2F
:100E8000FFF7A8FBFFF7C2F9FFF7D0FA0BE000F07D
:100E90004FFC00F0A1FBFFF7A5FDFFF747FE00F0B8
:100EA00039FCFFF743FEF2E7F0B50B4600210024C2
:100EB0000025244E366806F4E066B6F5E06F02D1F0
:100EC00000BF042526E01F4E366806F4E066B6F53E
:100ED000C06F02D1012403251CE01A4E366806F4C7
:100EE000E066B6F5A06F02D10224022512E0154E8D
:100EF000366806F4E066B6F5806F02D1032401255A
:100F000008E0104E366806F4E066B6F5407F01D181
:100F100004240025C4F1040603FA06F1C5F1040710
:100F20000F26FE40164031430901074E315400F0B0
:100F30001F070126BE404711BF0007F1E027C7F891
:100F40000061F0BD0CED00E000E400E082688B6819
:100F5000D21A0E4B1A60C268CB68D21A0B4B5A6079
:100F600002680B68D21A094B9A6042684B68D21A21
:100F7000064BDA6002690B69D21A044B1A614269A6
:100F80004B69D21A014B5A61704700002C030020B4
:100F90002449496821F44041224A51601146096BB5
:100FA00021F480711163052839D2DFE800F0030ACB
:100FB00014202C001B49096B21F48071194A11631C
:100FC0002EE018494968174A51601146096B41F4EF
:100FD0008071116324E01349496841F48041114A4A
:100FE00051601146096B41F48071116318E00D499D
:100FF000496841F400410B4A51601146096B41F4C4
:10100000807111630CE00749496841F44041054A89
:1010100051601146096B41F48071116300E000BF1B
:1010200000BF7047001002402DE9F04F8FB004461A
:101030004FF0000CE0460020002200258146CDF84C
:1010400038900021CDF83490CDF83090CDF82C9028
:101050000023CDF82890CDF82490CDF820900026DC
:1010600000270FF24C2999E8004CD9F80C90CDE9F3
:1010700005BECDF810A0CDF81C900FF2382ADAE9A1
:10108000009ACDE9029A0FF22C2ADAE9009ACDE90A
:10109000009ADFF82C92D9F80490C9F3810CBCF1C6
:1010A000000F06D0BCF1010F05D0BCF1020F3FD1FB
:1010B00003E0844A3EE0834A3CE0DFF80492D9F83A
:1010C0000490C9F38343DFF8F891D9F80490C9F389
:1010D000C069CDF82890DDF82890B9F1000F01D053
:1010E000113300E09B1CDFF8D891D9F80490C9F3C4
:1010F0000049CDF82490DDF82490B9F1000F12D00A
:10110000DFF8BC91D9F82C9009F00F0909F1010919
:10111000CDF82090DFF8ACA1DDF82090BAFBF9F90A
:1011200009FB03F203E0DFF8A09103FB09F201E001
:10113000644A00BF00BFDFF88891D9F80490C9F372
:1011400003160DF1100919F8067022FA07F5DFF8F9
:101150007091D9F80490C9F302260DF1080919F825
:10116000067025FA07F9CDF83890DFF85491D9F8D0
:101170000490C9F3C2261DF8067025FA07F1072C62
:1011800072D2DFE804F00406080A0C475B00104640
:1011900089E0284687E00E9885E0084683E0DFF87E
:1011A0002091D9F8309009F48079B9F5807F04D086
:1011B000DFF81891CDF834902AE0DFF80491D9F8DF
:1011C0000490C9F38138B8F1000F09D0B8F1010FCC
:1011D0000BD0B8F1020F0DD0B8F1030F16D110E00B
:1011E0004FEA5109CDF8349011E04FEA9109CDF85A
:1011F00034900CE04FF00609B1FBF9F9CDF83490CA
:1012000005E04FEAD109CDF8349000E000BF00BFFF
:101210000D9848E0DFF8A890D9F8309009F040091F
:10122000B9F1400F04D048F21209CDF8309003E034
:101230004FF40049CDF830900C9834E0DFF88090FE
:10124000D9F8309009F00309B9F1000F01D10B91E1
:1012500026E0DFF86C90D9F8309009F00309B9F175
:10126000010F02D10B921BE01CE0DFF85490D9F87B
:10127000309009F00309B9F1020F04D14FF400498D
:10128000CDF82C900CE0DFF83890D9F8309009F0C8
:101290000309B9F1030F03D1DFF82890CDF82C90A2
:1012A0000B9800E000BF00BF0FB0BDE8F08F00005A
:1012B0000000000000000000010203040607080906
:1012C0000010024000127A0000093D00809FD50006
:1012D0000146074A02EB9110006801F01F0301224A
:1012E0009A40104008B1012070470020FCE7000040
:1012F00000100240064A02EB9011096800F01F033B
:1013000001229A401143024B03EB90121160704787
:1013100000100240F0B50646002400270025B6F56F
:10132000006F1DD005DC76B3102E09D0182E70D1B9
:101330005EE0B6F5106F49D0B6F5506F69D133E075
:1013400004E01120FFF7C4FF0546641C15B9B4F58D
:10135000006FF6D11120FFF7BBFF00B1012759E064
:1013600005E040F60100FFF7B3FF0546641C1DB918
:101370006FF07C408442F4D140F60100FFF7A8FFF3
:1013800000B1012746E0FFE704E00120FFF7A0FFDE
:101390000546641C15B9B4F5A06FF6D10120FFF71E
:1013A00097FF00B1012735E005E040F60150FFF757
:1013B0008FFF0546641C15B918488442F5D140F6E4
:1013C0000150FFF785FF00B1012723E005E040F65B
:1013D0000110FFF77DFF0546641C15B90F488442D4
:1013E000F5D140F60110FFF773FF00B1012711E0BE
:1013F00004E01920FFF76CFF0546641C15B9074887
:101400008442F6D11920FFF763FF00B1012701E004
:10141000FFE700BF00BF3846F0BD0000FFFF0F0030
:10142000064A02EB9011096800F01F0301229A405E
:101430001143024B03EB9012116070470010024001
:10144000064A02EB9011096800F01F0301229A403E
:101450009143024B03EB9012116070470010024061
:10146000064A02EB9011096800F01F0301229A401E
:101470001143024B03EB90121160704700100240C1
:10148000012001490870704720000020C17070479A
:1014900080F83610704700000C4840680B494860DF
:1014A000084640684860084640684860084640680A
:1014B00020F00300486008464068486000BF0348C9
:1014C000406800200028FAD1704700000010024058
:1014D00010B5FFF7E1FF10BD10B5124800684FF4DA
:1014E0007A71B0FBF1F4601EB0F1807F01D301206E
:1014F0000FE0601E4FF0E02148610F214FF0FF30F8
:10150000FEF7FCFE00204FF0E02188610720086113
:10151000002008B100BFFEE70021481EFEF7EEFEE6
:1015200010BD000014000020016841F001010160BD
:10153000704700000A8882621D4A904205D0B0F1CF
:10154000804F02D01B4A90420CD1026822F0100258
:10155000026002684B881A43026002688B881A4353
:10156000026007E0026822F01002026002688B88C5
:101570001A4302608A68C2620F4A904207D002682A
:1015800022F44072026002688B891A430260084AA2
:10159000904208D0094A904205D0094A904202D0B0
:1015A000084A904201D18A7B0263426942617047D6
:1015B000002C0140000400400010004000400140A9
:1015C0000044014000480140C2680A43C2607047BD
:1015D00002698A430261704700B5A1B0FFF7B6FA0D
:1015E0000D9001A8FFF7CCFA182201A907A8FEF771
:1015F000D7FDBDF8340000B2ADF83800BDF83600B4
:1016000000B2ADF83A00079800B2ADF83C00089877
:1016100001B2ADF83E10099801B20EA801810A98F6
:1016200001B20EA841810B9801B20EA881810C98DD
:1016300001B20EA8C181FFF778FBADF84800FFF7B3
:1016400099FA8DF84A0013A8FFF7ECF9062113A8C0
:10165000FFF71CFF14220EA913A8FFF771F913A8B6
:10166000FFF70CFA13A800F01BF821B000BD00B57D
:101670008FB00220009001A8FFF7D4F9072101A83C
:10168000FFF704FF0122694601A8FFF759F901A8F5
:10169000FFF7F4F901A800F003F80FB000BD000057
:1016A00070B59AB0054600242846FFF73AFB064677
:1016B000642101A8FEF78DFD3246294601A8FEF7F8
:1016C0006FFD00BF0DE001A8015D084800F0DFF8E4
:1016D00000BF40F20771054800F003F90028F8D078
:1016E000641CB442EFDB1AB070BD0000003801404A
:1016F00010B50120FFF74EFA00B20449088000201F
:10170000FFF748FA0249088010BD00002E000020B3
:101710003000002010B505480068012804D10020E1
:1017200002490860FFF7A3FF10BD00000000002081
:1017300000B58DB0182107A8FEF74BFD182101A8B0
:10174000FEF747FD0420FFF725FA09900620FFF772
:1017500021FA0C90012240212A48FFF71AFB0220AF
:10176000FFF776F90420FFF715FA03900620FFF73C
:1017700011FA0690002240212248FFF70AFB0820B8
:10178000FFF708FA0A900320FFF704FA0B900122F2
:1017900080211C48FFF7FDFA0220FFF759F90820C5
:1017A000FFF7F8F904900320FFF7F4F90590002201
:1017B00080211448FFF7EDFA0220FFF7EBF90790BC
:1017C0000720FFF7E7F90890012211024FF090403F
:1017D000FFF7DFFA0220FFF73BF90220FFF7DAF903
:1017E00001900720FFF7D6F9029000224FF4807194
:1017F0004FF09040FFF7CDFA01A907A8FFF7A6FB2D
:101800000DB000BD000400482DE9F04704460D4628
:101810000027B846B94600261948204438B1B0F52B
:10182000744F09D10620FFF7FFFB074605E00220B1
:10183000FFF7FAFB074600E000BF00BF206800F496
:10184000004070B1780000EB5500B0FBF5F64FF6A4
:10185000F07006EA0008C6F3420948EA0900E060B1
:101860000CE007EB5500B0FBF5F64FF6F07006EA1A
:10187000000806F00F0948EA0900E060BDE8F087BB
:1018800000BCFFBF0146486AC0F308007047C1F3BF
:10189000080282627047000010B504460D482044DB
:1018A00058B1B0F5744F11D140F20E30FFF7D8FDAA
:1018B00040F20E30FFF7C4FD09E040F21140FFF79F
:1018C000CFFD40F21140FFF7BBFD00E000BF00BFBD
:1018D00010BD000000BCFFBF016841F001010160C4
:1018E000704710B5024602EB9110006801F01F042A
:1018F0000123A340184008B1012010BD0020FCE7DF
:1019000010B5C1F38912825801F01F040123A340CE
:101910001A43C1F38913C25010BD10B5026AC1F356
:1019200004440123A3401A43026210BD70B502466D
:1019300000230024C1F38910105801F01F0601256F
:10194000B54000EA050302EB91500068C1F304467C
:101950000125B54000EA050414B10BB1012070BDAA
:101960000020FCE7026822F00402026002680A43D9
:1019700002607047026822F00802026002680A43AF
:1019800002607047070000000000000020A107006F
:1019900000000000B419000800000020340000001E
:1019A00090060008E8190008340000201407000021
:1019B000A006000800000000FFFFFFFFD2000000AB
:1019C000D20000000000000000127A0000000000B9
:1019D0000000000000000000000000000000000007
:0819E0000000000000000000FF
:040000050800017D71
:00000001FF
